{
  "contractName": "Voting",
  "abi": [
    {
      "inputs": [
        {
          "internalType": "address",
          "name": "__USN",
          "type": "address"
        }
      ],
      "stateMutability": "nonpayable",
      "type": "constructor"
    },
    {
      "inputs": [],
      "name": "CandidateCount",
      "outputs": [
        {
          "internalType": "uint256",
          "name": "",
          "type": "uint256"
        }
      ],
      "stateMutability": "view",
      "type": "function",
      "constant": true
    },
    {
      "inputs": [
        {
          "internalType": "uint256",
          "name": "",
          "type": "uint256"
        }
      ],
      "name": "Candidates",
      "outputs": [
        {
          "internalType": "string",
          "name": "name",
          "type": "string"
        },
        {
          "internalType": "address",
          "name": "addr",
          "type": "address"
        },
        {
          "internalType": "uint256",
          "name": "VoteCount",
          "type": "uint256"
        }
      ],
      "stateMutability": "view",
      "type": "function",
      "constant": true
    },
    {
      "inputs": [],
      "name": "Owner",
      "outputs": [
        {
          "internalType": "address",
          "name": "",
          "type": "address"
        }
      ],
      "stateMutability": "view",
      "type": "function",
      "constant": true
    },
    {
      "inputs": [],
      "name": "PastWinner",
      "outputs": [
        {
          "internalType": "address",
          "name": "",
          "type": "address"
        }
      ],
      "stateMutability": "view",
      "type": "function",
      "constant": true
    },
    {
      "inputs": [],
      "name": "VotingPhase",
      "outputs": [
        {
          "internalType": "bool",
          "name": "",
          "type": "bool"
        }
      ],
      "stateMutability": "view",
      "type": "function",
      "constant": true
    },
    {
      "inputs": [],
      "name": "usingMap",
      "outputs": [
        {
          "internalType": "uint256",
          "name": "",
          "type": "uint256"
        }
      ],
      "stateMutability": "view",
      "type": "function",
      "constant": true
    },
    {
      "inputs": [
        {
          "internalType": "uint256",
          "name": "",
          "type": "uint256"
        },
        {
          "internalType": "address",
          "name": "",
          "type": "address"
        }
      ],
      "name": "voted",
      "outputs": [
        {
          "internalType": "bool",
          "name": "",
          "type": "bool"
        }
      ],
      "stateMutability": "view",
      "type": "function",
      "constant": true
    },
    {
      "stateMutability": "payable",
      "type": "receive",
      "payable": true
    },
    {
      "inputs": [
        {
          "internalType": "string",
          "name": "_name",
          "type": "string"
        }
      ],
      "name": "addCadidate",
      "outputs": [],
      "stateMutability": "payable",
      "type": "function",
      "payable": true
    },
    {
      "inputs": [
        {
          "internalType": "uint256",
          "name": "_num",
          "type": "uint256"
        }
      ],
      "name": "vote",
      "outputs": [],
      "stateMutability": "nonpayable",
      "type": "function"
    },
    {
      "inputs": [],
      "name": "StartVoting",
      "outputs": [],
      "stateMutability": "nonpayable",
      "type": "function"
    },
    {
      "inputs": [],
      "name": "EndVoting",
      "outputs": [],
      "stateMutability": "nonpayable",
      "type": "function"
    },
    {
      "inputs": [
        {
          "internalType": "uint256",
          "name": "_num",
          "type": "uint256"
        }
      ],
      "name": "GetCandidate",
      "outputs": [
        {
          "internalType": "string",
          "name": "",
          "type": "string"
        },
        {
          "internalType": "address",
          "name": "",
          "type": "address"
        },
        {
          "internalType": "uint256",
          "name": "",
          "type": "uint256"
        }
      ],
      "stateMutability": "view",
      "type": "function",
      "constant": true
    }
  ],
  "bytecode": "0x60a06040523480156200001157600080fd5b5060405162001bcb38038062001bcb833981810160405281019062000037919062000107565b33600060016101000a81548173ffffffffffffffffffffffffffffffffffffffff021916908373ffffffffffffffffffffffffffffffffffffffff160217905550600260018160018154018082558091505003906000526020600020505060026001816001815401808255809150500390600052602060002050508073ffffffffffffffffffffffffffffffffffffffff1660808173ffffffffffffffffffffffffffffffffffffffff1660601b815250505062000181565b600081519050620001018162000167565b92915050565b6000602082840312156200011a57600080fd5b60006200012a84828501620000f0565b91505092915050565b6000620001408262000147565b9050919050565b600073ffffffffffffffffffffffffffffffffffffffff82169050919050565b620001728162000133565b81146200017e57600080fd5b50565b60805160601c611a2b620001a060003960006102c10152611a2b6000f3fe6080604052600436106100ab5760003560e01c806355d19ed31161006457806355d19ed3146101c9578063745b009c146101e55780637a99c0a6146102105780638cb89fc3146102275780638dd32e1514610266578063b4a99a4e14610291576100b2565b80630121b93f146100b7578063186f871d146100e05780632908fc4f1461010b578063290e92121461013657806330805551146101755780635277b4ae1461018c576100b2565b366100b257005b600080fd5b3480156100c357600080fd5b506100de60048036038101906100d991906112fa565b6102bc565b005b3480156100ec57600080fd5b506100f5610617565b60405161010291906115ae565b60405180910390f35b34801561011757600080fd5b5061012061063d565b60405161012d91906115c9565b60405180910390f35b34801561014257600080fd5b5061015d600480360381019061015891906112fa565b61064e565b60405161016c939291906115e4565b60405180910390f35b34801561018157600080fd5b5061018a610730565b005b34801561019857600080fd5b506101b360048036038101906101ae919061134c565b610b03565b6040516101c091906115c9565b60405180910390f35b6101e360048036038101906101de91906112b9565b610b3e565b005b3480156101f157600080fd5b506101fa610df8565b6040516102079190611702565b60405180910390f35b34801561021c57600080fd5b50610225610dfe565b005b34801561023357600080fd5b5061024e600480360381019061024991906112fa565b610ee8565b60405161025d939291906115e4565b60405180910390f35b34801561027257600080fd5b5061027b611089565b6040516102889190611702565b60405180910390f35b34801561029d57600080fd5b506102a661108f565b6040516102b391906115ae565b60405180910390f35b6000807f000000000000000000000000000000000000000000000000000000000000000090508073ffffffffffffffffffffffffffffffffffffffff166318160ddd6040518163ffffffff1660e01b815260040160206040518083038186803b15801561032857600080fd5b505afa15801561033c573d6000803e3d6000fd5b505050506040513d601f19601f820116820180604052508101906103609190611323565b9150600182116103a5576040517f08c379a000000000000000000000000000000000000000000000000000000000815260040161039c90611662565b60405180910390fd5b60008054906101000a900460ff166103f2576040517f08c379a00000000000000000000000000000000000000000000000000000000081526004016103e990611642565b60405180910390fd5b60026005548154811061042e577f4e487b7100000000000000000000000000000000000000000000000000000000600052603260045260246000fd5b9060005260206000200160003373ffffffffffffffffffffffffffffffffffffffff1673ffffffffffffffffffffffffffffffffffffffff16815260200190815260200160002060009054906101000a900460ff16156104c3576040517f08c379a00000000000000000000000000000000000000000000000000000000081526004016104ba906116a2565b60405180910390fd5b60045483111580156104d6575060008310155b610515576040517f08c379a000000000000000000000000000000000000000000000000000000000815260040161050c906116c2565b60405180910390fd5b6001600260055481548110610553577f4e487b7100000000000000000000000000000000000000000000000000000000600052603260045260246000fd5b9060005260206000200160003373ffffffffffffffffffffffffffffffffffffffff1673ffffffffffffffffffffffffffffffffffffffff16815260200190815260200160002060006101000a81548160ff021916908315150217905550600383815481106105eb577f4e487b7100000000000000000000000000000000000000000000000000000000600052603260045260246000fd5b9060005260206000209060030201600201600081548092919061060d906118e0565b9190505550505050565b600160009054906101000a900473ffffffffffffffffffffffffffffffffffffffff1681565b60008054906101000a900460ff1681565b6003818154811061065e57600080fd5b9060005260206000209060030201600091509050806000018054610681906118ae565b80601f01602080910402602001604051908101604052809291908181526020018280546106ad906118ae565b80156106fa5780601f106106cf576101008083540402835291602001916106fa565b820191906000526020600020905b8154815290600101906020018083116106dd57829003601f168201915b5050505050908060010160009054906101000a900473ffffffffffffffffffffffffffffffffffffffff16908060020154905083565b3373ffffffffffffffffffffffffffffffffffffffff16600060019054906101000a900473ffffffffffffffffffffffffffffffffffffffff1673ffffffffffffffffffffffffffffffffffffffff16146107c0576040517f08c379a00000000000000000000000000000000000000000000000000000000081526004016107b790611682565b60405180910390fd5b60008060006101000a81548160ff02191690831515021790555060006004541161081f576040517f08c379a0000000000000000000000000000000000000000000000000000000008152600401610816906116e2565b60405180910390fd5b6000600360008154811061085c577f4e487b7100000000000000000000000000000000000000000000000000000000600052603260045260246000fd5b906000526020600020906003020160020154905060036000815481106108ab577f4e487b7100000000000000000000000000000000000000000000000000000000600052603260045260246000fd5b906000526020600020906003020160010160009054906101000a900473ffffffffffffffffffffffffffffffffffffffff16600160006101000a81548173ffffffffffffffffffffffffffffffffffffffff021916908373ffffffffffffffffffffffffffffffffffffffff1602179055506000600190505b600160045461093391906117f0565b8111610a9a578160038281548110610974577f4e487b7100000000000000000000000000000000000000000000000000000000600052603260045260246000fd5b9060005260206000209060030201600201541115610a8757600381815481106109c6577f4e487b7100000000000000000000000000000000000000000000000000000000600052603260045260246000fd5b906000526020600020906003020160020154915060038181548110610a14577f4e487b7100000000000000000000000000000000000000000000000000000000600052603260045260246000fd5b906000526020600020906003020160010160009054906101000a900473ffffffffffffffffffffffffffffffffffffffff16600160006101000a81548173ffffffffffffffffffffffffffffffffffffffff021916908373ffffffffffffffffffffffffffffffffffffffff1602179055505b8080610a92906118e0565b915050610924565b5060036000610aa991906110b5565b60006004819055506002600554610ac0919061179a565b6005819055506002600181600181540180825580915050039060005260206000205050600260018160018154018082558091505003906000526020600020505050565b60028281548110610b1357600080fd5b906000526020600020016020528060005260406000206000915091509054906101000a900460ff1681565b60008054906101000a900460ff16610b8b576040517f08c379a0000000000000000000000000000000000000000000000000000000008152600401610b8290611642565b60405180910390fd5b60026001600554610b9c919061179a565b81548110610bd3577f4e487b7100000000000000000000000000000000000000000000000000000000600052603260045260246000fd5b9060005260206000200160003373ffffffffffffffffffffffffffffffffffffffff1673ffffffffffffffffffffffffffffffffffffffff16815260200190815260200160002060009054906101000a900460ff1615610c68576040517f08c379a0000000000000000000000000000000000000000000000000000000008152600401610c5f90611622565b60405180910390fd5b600160026001600554610c7b919061179a565b81548110610cb2577f4e487b7100000000000000000000000000000000000000000000000000000000600052603260045260246000fd5b9060005260206000200160003373ffffffffffffffffffffffffffffffffffffffff1673ffffffffffffffffffffffffffffffffffffffff16815260200190815260200160002060006101000a81548160ff021916908315150217905550600360405180606001604052808381526020013373ffffffffffffffffffffffffffffffffffffffff168152602001600081525090806001815401808255809150506001900390600052602060002090600302016000909190919091506000820151816000019080519060200190610d899291906110d9565b5060208201518160010160006101000a81548173ffffffffffffffffffffffffffffffffffffffff021916908373ffffffffffffffffffffffffffffffffffffffff16021790555060408201518160020155505060046000815480929190610df0906118e0565b919050555050565b60055481565b3373ffffffffffffffffffffffffffffffffffffffff16600060019054906101000a900473ffffffffffffffffffffffffffffffffffffffff1673ffffffffffffffffffffffffffffffffffffffff1614610e8e576040517f08c379a0000000000000000000000000000000000000000000000000000000008152600401610e8590611682565b60405180910390fd5b60016000806101000a81548160ff021916908315150217905550610ee66040518060400160405280600581526020017f4a61797a7a000000000000000000000000000000000000000000000000000000815250610b3e565b565b606060008060038481548110610f27577f4e487b7100000000000000000000000000000000000000000000000000000000600052603260045260246000fd5b906000526020600020906003020160000160038581548110610f72577f4e487b7100000000000000000000000000000000000000000000000000000000600052603260045260246000fd5b906000526020600020906003020160010160009054906101000a900473ffffffffffffffffffffffffffffffffffffffff1660038681548110610fde577f4e487b7100000000000000000000000000000000000000000000000000000000600052603260045260246000fd5b906000526020600020906003020160020154828054610ffc906118ae565b80601f0160208091040260200160405190810160405280929190818152602001828054611028906118ae565b80156110755780601f1061104a57610100808354040283529160200191611075565b820191906000526020600020905b81548152906001019060200180831161105857829003601f168201915b505050505092509250925092509193909250565b60045481565b600060019054906101000a900473ffffffffffffffffffffffffffffffffffffffff1681565b50805460008255600302906000526020600020908101906110d6919061115f565b50565b8280546110e5906118ae565b90600052602060002090601f016020900481019282611107576000855561114e565b82601f1061112057805160ff191683800117855561114e565b8280016001018555821561114e579182015b8281111561114d578251825591602001919060010190611132565b5b50905061115b91906111b5565b5090565b5b808211156111b1576000808201600061117991906111d2565b6001820160006101000a81549073ffffffffffffffffffffffffffffffffffffffff0219169055600282016000905550600301611160565b5090565b5b808211156111ce5760008160009055506001016111b6565b5090565b5080546111de906118ae565b6000825580601f106111f0575061120f565b601f01602090049060005260206000209081019061120e91906111b5565b5b50565b60006112256112208461174e565b61171d565b90508281526020810184848401111561123d57600080fd5b61124884828561186c565b509392505050565b60008135905061125f816119c7565b92915050565b600082601f83011261127657600080fd5b8135611286848260208601611212565b91505092915050565b60008135905061129e816119de565b92915050565b6000815190506112b3816119de565b92915050565b6000602082840312156112cb57600080fd5b600082013567ffffffffffffffff8111156112e557600080fd5b6112f184828501611265565b91505092915050565b60006020828403121561130c57600080fd5b600061131a8482850161128f565b91505092915050565b60006020828403121561133557600080fd5b6000611343848285016112a4565b91505092915050565b6000806040838503121561135f57600080fd5b600061136d8582860161128f565b925050602061137e85828601611250565b9150509250929050565b61139181611824565b82525050565b6113a081611836565b82525050565b60006113b18261177e565b6113bb8185611789565b93506113cb81856020860161187b565b6113d4816119b6565b840191505092915050565b60006113ec601283611789565b91507f5520616c726561647920656e726f6c6c656400000000000000000000000000006000830152602082019050919050565b600061142c601283611789565b91507f566f74696e67204e6f74205354415254454400000000000000000000000000006000830152602082019050919050565b600061146c601083611789565b91507f55534e2062616c204e4f207468657265000000000000000000000000000000006000830152602082019050919050565b60006114ac600a83611789565b91507f75206e6f206f776e6572000000000000000000000000000000000000000000006000830152602082019050919050565b60006114ec601183611789565b91507f43616e7420566f746520416e6f746865720000000000000000000000000000006000830152602082019050919050565b600061152c601083611789565b91507f496e76616c6964204361646964617465000000000000000000000000000000006000830152602082019050919050565b600061156c600983611789565b91507f4e6f2063616469647300000000000000000000000000000000000000000000006000830152602082019050919050565b6115a881611862565b82525050565b60006020820190506115c36000830184611388565b92915050565b60006020820190506115de6000830184611397565b92915050565b600060608201905081810360008301526115fe81866113a6565b905061160d6020830185611388565b61161a604083018461159f565b949350505050565b6000602082019050818103600083015261163b816113df565b9050919050565b6000602082019050818103600083015261165b8161141f565b9050919050565b6000602082019050818103600083015261167b8161145f565b9050919050565b6000602082019050818103600083015261169b8161149f565b9050919050565b600060208201905081810360008301526116bb816114df565b9050919050565b600060208201905081810360008301526116db8161151f565b9050919050565b600060208201905081810360008301526116fb8161155f565b9050919050565b6000602082019050611717600083018461159f565b92915050565b6000604051905081810181811067ffffffffffffffff8211171561174457611743611987565b5b8060405250919050565b600067ffffffffffffffff82111561176957611768611987565b5b601f19601f8301169050602081019050919050565b600081519050919050565b600082825260208201905092915050565b60006117a582611862565b91506117b083611862565b9250827fffffffffffffffffffffffffffffffffffffffffffffffffffffffffffffffff038211156117e5576117e4611929565b5b828201905092915050565b60006117fb82611862565b915061180683611862565b92508282101561181957611818611929565b5b828203905092915050565b600061182f82611842565b9050919050565b60008115159050919050565b600073ffffffffffffffffffffffffffffffffffffffff82169050919050565b6000819050919050565b82818337600083830152505050565b60005b8381101561189957808201518184015260208101905061187e565b838111156118a8576000848401525b50505050565b600060028204905060018216806118c657607f821691505b602082108114156118da576118d9611958565b5b50919050565b60006118eb82611862565b91507fffffffffffffffffffffffffffffffffffffffffffffffffffffffffffffffff82141561191e5761191d611929565b5b600182019050919050565b7f4e487b7100000000000000000000000000000000000000000000000000000000600052601160045260246000fd5b7f4e487b7100000000000000000000000000000000000000000000000000000000600052602260045260246000fd5b7f4e487b7100000000000000000000000000000000000000000000000000000000600052604160045260246000fd5b6000601f19601f8301169050919050565b6119d081611824565b81146119db57600080fd5b50565b6119e781611862565b81146119f257600080fd5b5056fea26469706673582212200890ffa97c73c798e15b36942b5665fb0b45e11d0f49440a4a5b4aaf1867bf5e64736f6c63430008000033",
  "immutableReferences": {
    "92": [
      {
        "length": 32,
        "start": 705
      }
    ]
  },
  "source": "// SPDX-License-Identifier: MIT\r\npragma solidity ^0.8.0;\r\n\r\nimport \"./USN.sol\";\r\n\r\ncontract Voting {\r\n\r\n    bool public VotingPhase;\r\n    address public Owner;\r\n    address immutable _USN;\r\n\r\n    struct Candidate {\r\n        string name;\r\n        address addr;\r\n        uint VoteCount;\r\n    }\r\n\r\n    address public PastWinner;\r\n\r\n    mapping(address => bool)[] public voted;  // mapping initialization\r\n\r\n\r\n    Candidate[] public Candidates;\r\n    uint public CandidateCount;\r\n    uint public usingMap ;\r\n    \r\n\r\n    modifier OnlyOwnable {\r\n        require(Owner == msg.sender , \"u no owner\");\r\n        _;\r\n    }\r\n    \r\n    constructor(address __USN) {\r\n        Owner = msg.sender;\r\n        voted.push();\r\n        voted.push();\r\n        _USN = __USN;\r\n    }\r\n\r\n    function addCadidate(string memory _name) public payable{\r\n        require(VotingPhase , \"Voting Not STARTED\");\r\n        require(!voted[usingMap + 1][msg.sender] , \"U already enrolled\");\r\n        voted[usingMap + 1][msg.sender] = true;\r\n        Candidates.push(Candidate(_name ,msg.sender, 0));\r\n        CandidateCount++;\r\n        // vote(0);    //delete\r\n    }\r\n\r\n    function vote(uint _num  ) public {\r\n        uint  USNBal;\r\n        USN contr = USN(_USN);\r\n        USNBal = contr.totalSupply();\r\n        require(USNBal > 1 , \"USN bal NO there\");\r\n        require(VotingPhase , \"Voting Not STARTED\");\r\n        require(!voted[usingMap][msg.sender] , \"Cant Vote Another\");\r\n        require(_num <= CandidateCount && _num >= 0 , \"Invalid Cadidate\");\r\n        voted[usingMap ][msg.sender] = true;\r\n        Candidates[_num].VoteCount++;\r\n    }\r\n\r\n    function StartVoting() public OnlyOwnable {\r\n        VotingPhase = true;\r\n        addCadidate(\"Jayzz\");\r\n    }\r\n\r\n\r\n    function EndVoting() public OnlyOwnable {\r\n\r\n        VotingPhase = false;                                //\r\n        require(CandidateCount > 0 , \"No cadids\")  ;                                                 //\r\n        uint Maxvotes = Candidates[0].VoteCount;            //                                                                                                                                                                                                                   \r\n        PastWinner = Candidates[0].addr;                    //                                                                                                                                                                                                           \r\n                                                            //\r\n        for (uint i = 1;i <= CandidateCount - 1 ; i++) {        //                                                                                                                                                                                                                      \r\n            if (Candidates[i].VoteCount > Maxvotes) { \r\n                Maxvotes =  Candidates[i].VoteCount;                                                                                                                                                                                                \r\n                PastWinner = Candidates[i].addr;            //                                                                                                                                                                                                                  \r\n            }\r\n        }\r\n\r\n        delete Candidates;\r\n        CandidateCount = 0;\r\n        usingMap = usingMap + 2;\r\n        voted.push();\r\n        voted.push();\r\n        \r\n        \r\n    }\r\n\r\n    function GetCandidate(uint _num) public view returns(string memory, address , uint) {\r\n        return ( Candidates[_num].name , Candidates[_num].addr , Candidates[_num].VoteCount);\r\n    }   \r\n    receive() external payable {}\r\n}",
  "sourcePath": "C:\\tai_jutsu\\All_Web3\\AVAX_VOTING\\SmartContracts\\contracts\\Voting.sol",
  "compiler": {
    "name": "solc",
    "version": "0.8.0+commit.c7dfd78e.Emscripten.clang"
  },
  "schemaVersion": "3.4.7",
  "updatedAt": "2022-07-10T16:10:17.608Z",
  "networkType": "ethereum",
  "devdoc": {
    "kind": "dev",
    "methods": {},
    "version": 1
  },
  "userdoc": {
    "kind": "user",
    "methods": {},
    "version": 1
  }
}