{
  "contractName": "USN",
  "abi": [
    {
      "inputs": [],
      "stateMutability": "nonpayable",
      "type": "constructor"
    },
    {
      "anonymous": false,
      "inputs": [
        {
          "indexed": true,
          "internalType": "address",
          "name": "owner",
          "type": "address"
        },
        {
          "indexed": true,
          "internalType": "address",
          "name": "spender",
          "type": "address"
        },
        {
          "indexed": false,
          "internalType": "uint256",
          "name": "value",
          "type": "uint256"
        }
      ],
      "name": "Approval",
      "type": "event"
    },
    {
      "anonymous": false,
      "inputs": [
        {
          "indexed": true,
          "internalType": "address",
          "name": "from",
          "type": "address"
        },
        {
          "indexed": true,
          "internalType": "address",
          "name": "to",
          "type": "address"
        },
        {
          "indexed": false,
          "internalType": "uint256",
          "name": "value",
          "type": "uint256"
        }
      ],
      "name": "Transfer",
      "type": "event"
    },
    {
      "inputs": [
        {
          "internalType": "address",
          "name": "owner",
          "type": "address"
        },
        {
          "internalType": "address",
          "name": "spender",
          "type": "address"
        }
      ],
      "name": "allowance",
      "outputs": [
        {
          "internalType": "uint256",
          "name": "",
          "type": "uint256"
        }
      ],
      "stateMutability": "view",
      "type": "function",
      "constant": true
    },
    {
      "inputs": [
        {
          "internalType": "address",
          "name": "spender",
          "type": "address"
        },
        {
          "internalType": "uint256",
          "name": "amount",
          "type": "uint256"
        }
      ],
      "name": "approve",
      "outputs": [
        {
          "internalType": "bool",
          "name": "",
          "type": "bool"
        }
      ],
      "stateMutability": "nonpayable",
      "type": "function"
    },
    {
      "inputs": [
        {
          "internalType": "address",
          "name": "account",
          "type": "address"
        }
      ],
      "name": "balanceOf",
      "outputs": [
        {
          "internalType": "uint256",
          "name": "",
          "type": "uint256"
        }
      ],
      "stateMutability": "view",
      "type": "function",
      "constant": true
    },
    {
      "inputs": [],
      "name": "decimals",
      "outputs": [
        {
          "internalType": "uint8",
          "name": "",
          "type": "uint8"
        }
      ],
      "stateMutability": "view",
      "type": "function",
      "constant": true
    },
    {
      "inputs": [
        {
          "internalType": "address",
          "name": "spender",
          "type": "address"
        },
        {
          "internalType": "uint256",
          "name": "subtractedValue",
          "type": "uint256"
        }
      ],
      "name": "decreaseAllowance",
      "outputs": [
        {
          "internalType": "bool",
          "name": "",
          "type": "bool"
        }
      ],
      "stateMutability": "nonpayable",
      "type": "function"
    },
    {
      "inputs": [
        {
          "internalType": "address",
          "name": "spender",
          "type": "address"
        },
        {
          "internalType": "uint256",
          "name": "addedValue",
          "type": "uint256"
        }
      ],
      "name": "increaseAllowance",
      "outputs": [
        {
          "internalType": "bool",
          "name": "",
          "type": "bool"
        }
      ],
      "stateMutability": "nonpayable",
      "type": "function"
    },
    {
      "inputs": [],
      "name": "name",
      "outputs": [
        {
          "internalType": "string",
          "name": "",
          "type": "string"
        }
      ],
      "stateMutability": "view",
      "type": "function",
      "constant": true
    },
    {
      "inputs": [],
      "name": "symbol",
      "outputs": [
        {
          "internalType": "string",
          "name": "",
          "type": "string"
        }
      ],
      "stateMutability": "view",
      "type": "function",
      "constant": true
    },
    {
      "inputs": [],
      "name": "totalSupply",
      "outputs": [
        {
          "internalType": "uint256",
          "name": "",
          "type": "uint256"
        }
      ],
      "stateMutability": "view",
      "type": "function",
      "constant": true
    },
    {
      "inputs": [
        {
          "internalType": "address",
          "name": "to",
          "type": "address"
        },
        {
          "internalType": "uint256",
          "name": "amount",
          "type": "uint256"
        }
      ],
      "name": "transfer",
      "outputs": [
        {
          "internalType": "bool",
          "name": "",
          "type": "bool"
        }
      ],
      "stateMutability": "nonpayable",
      "type": "function"
    },
    {
      "inputs": [
        {
          "internalType": "address",
          "name": "from",
          "type": "address"
        },
        {
          "internalType": "address",
          "name": "to",
          "type": "address"
        },
        {
          "internalType": "uint256",
          "name": "amount",
          "type": "uint256"
        }
      ],
      "name": "transferFrom",
      "outputs": [
        {
          "internalType": "bool",
          "name": "",
          "type": "bool"
        }
      ],
      "stateMutability": "nonpayable",
      "type": "function"
    },
    {
      "inputs": [],
      "name": "MintMore",
      "outputs": [],
      "stateMutability": "nonpayable",
      "type": "function"
    }
  ],
  "bytecode": "0x60806040523480156200001157600080fd5b506040518060400160405280600381526020017f55534e00000000000000000000000000000000000000000000000000000000008152506040518060400160405280600381526020017f55534e000000000000000000000000000000000000000000000000000000000081525081600390805190602001906200009692919062000284565b508060049080519060200190620000af92919062000284565b505050620000f233620000c7620000f860201b60201c565b60ff16600a620000d891906200048f565b6064620000e69190620005cc565b6200010160201b60201c565b620006d8565b60006012905090565b600073ffffffffffffffffffffffffffffffffffffffff168273ffffffffffffffffffffffffffffffffffffffff16141562000174576040517f08c379a00000000000000000000000000000000000000000000000000000000081526004016200016b9062000387565b60405180910390fd5b62000188600083836200027a60201b60201c565b80600260008282546200019c9190620003d7565b92505081905550806000808473ffffffffffffffffffffffffffffffffffffffff1673ffffffffffffffffffffffffffffffffffffffff1681526020019081526020016000206000828254620001f39190620003d7565b925050819055508173ffffffffffffffffffffffffffffffffffffffff16600073ffffffffffffffffffffffffffffffffffffffff167fddf252ad1be2c89b69c2b068fc378daa952ba7f163c4a11628f55a4df523b3ef836040516200025a9190620003a9565b60405180910390a362000276600083836200027f60201b60201c565b5050565b505050565b505050565b828054620002929062000637565b90600052602060002090601f016020900481019282620002b6576000855562000302565b82601f10620002d157805160ff191683800117855562000302565b8280016001018555821562000302579182015b8281111562000301578251825591602001919060010190620002e4565b5b50905062000311919062000315565b5090565b5b808211156200033057600081600090555060010162000316565b5090565b600062000343601f83620003c6565b91507f45524332303a206d696e7420746f20746865207a65726f2061646472657373006000830152602082019050919050565b62000381816200062d565b82525050565b60006020820190508181036000830152620003a28162000334565b9050919050565b6000602082019050620003c0600083018462000376565b92915050565b600082825260208201905092915050565b6000620003e4826200062d565b9150620003f1836200062d565b9250827fffffffffffffffffffffffffffffffffffffffffffffffffffffffffffffffff038211156200042957620004286200066d565b5b828201905092915050565b6000808291508390505b600185111562000486578086048111156200045e576200045d6200066d565b5b60018516156200046e5780820291505b80810290506200047e85620006cb565b94506200043e565b94509492505050565b60006200049c826200062d565b9150620004a9836200062d565b9250620004d87fffffffffffffffffffffffffffffffffffffffffffffffffffffffffffffffff8484620004e0565b905092915050565b600082620004f25760019050620005c5565b81620005025760009050620005c5565b81600181146200051b576002811462000526576200055c565b6001915050620005c5565b60ff8411156200053b576200053a6200066d565b5b8360020a9150848211156200055557620005546200066d565b5b50620005c5565b5060208310610133831016604e8410600b8410161715620005965782820a90508381111562000590576200058f6200066d565b5b620005c5565b620005a5848484600162000434565b92509050818404811115620005bf57620005be6200066d565b5b81810290505b9392505050565b6000620005d9826200062d565b9150620005e6836200062d565b9250817fffffffffffffffffffffffffffffffffffffffffffffffffffffffffffffffff04831182151516156200062257620006216200066d565b5b828202905092915050565b6000819050919050565b600060028204905060018216806200065057607f821691505b602082108114156200066757620006666200069c565b5b50919050565b7f4e487b7100000000000000000000000000000000000000000000000000000000600052601160045260246000fd5b7f4e487b7100000000000000000000000000000000000000000000000000000000600052602260045260246000fd5b60008160011c9050919050565b6115da80620006e86000396000f3fe608060405234801561001057600080fd5b50600436106100b45760003560e01c80633950935111610071578063395093511461017d57806370a08231146101ad57806395d89b41146101dd578063a457c2d7146101fb578063a9059cbb1461022b578063dd62ed3e1461025b576100b4565b806306fdde03146100b9578063095ea7b3146100d757806318160ddd1461010757806323b872dd14610125578063313ce5671461015557806331f4fb4214610173575b600080fd5b6100c161028b565b6040516100ce91906110ab565b60405180910390f35b6100f160048036038101906100ec9190610d0a565b61031d565b6040516100fe9190611090565b60405180910390f35b61010f610340565b60405161011c91906111cd565b60405180910390f35b61013f600480360381019061013a9190610cbb565b61034a565b60405161014c9190611090565b60405180910390f35b61015d610379565b60405161016a91906111e8565b60405180910390f35b61017b610382565b005b61019760048036038101906101929190610d0a565b6103b0565b6040516101a49190611090565b60405180910390f35b6101c760048036038101906101c29190610c56565b6103e7565b6040516101d491906111cd565b60405180910390f35b6101e561042f565b6040516101f291906110ab565b60405180910390f35b61021560048036038101906102109190610d0a565b6104c1565b6040516102229190611090565b60405180910390f35b61024560048036038101906102409190610d0a565b610538565b6040516102529190611090565b60405180910390f35b61027560048036038101906102709190610c7f565b61055b565b60405161028291906111cd565b60405180910390f35b60606003805461029a906114c8565b80601f01602080910402602001604051908101604052809291908181526020018280546102c6906114c8565b80156103135780601f106102e857610100808354040283529160200191610313565b820191906000526020600020905b8154815290600101906020018083116102f657829003601f168201915b5050505050905090565b6000806103286105e2565b90506103358185856105ea565b600191505092915050565b6000600254905090565b6000806103556105e2565b90506103628582856107b5565b61036d858585610841565b60019150509392505050565b60006012905090565b6103ae3361038e610379565b60ff16600a61039d91906112c8565b60646103a991906113e6565b610ac2565b565b6000806103bb6105e2565b90506103dc8185856103cd858961055b565b6103d7919061121f565b6105ea565b600191505092915050565b60008060008373ffffffffffffffffffffffffffffffffffffffff1673ffffffffffffffffffffffffffffffffffffffff168152602001908152602001600020549050919050565b60606004805461043e906114c8565b80601f016020809104026020016040519081016040528092919081815260200182805461046a906114c8565b80156104b75780601f1061048c576101008083540402835291602001916104b7565b820191906000526020600020905b81548152906001019060200180831161049a57829003601f168201915b5050505050905090565b6000806104cc6105e2565b905060006104da828661055b565b90508381101561051f576040517f08c379a00000000000000000000000000000000000000000000000000000000081526004016105169061118d565b60405180910390fd5b61052c82868684036105ea565b60019250505092915050565b6000806105436105e2565b9050610550818585610841565b600191505092915050565b6000600160008473ffffffffffffffffffffffffffffffffffffffff1673ffffffffffffffffffffffffffffffffffffffff16815260200190815260200160002060008373ffffffffffffffffffffffffffffffffffffffff1673ffffffffffffffffffffffffffffffffffffffff16815260200190815260200160002054905092915050565b600033905090565b600073ffffffffffffffffffffffffffffffffffffffff168373ffffffffffffffffffffffffffffffffffffffff16141561065a576040517f08c379a00000000000000000000000000000000000000000000000000000000081526004016106519061116d565b60405180910390fd5b600073ffffffffffffffffffffffffffffffffffffffff168273ffffffffffffffffffffffffffffffffffffffff1614156106ca576040517f08c379a00000000000000000000000000000000000000000000000000000000081526004016106c1906110ed565b60405180910390fd5b80600160008573ffffffffffffffffffffffffffffffffffffffff1673ffffffffffffffffffffffffffffffffffffffff16815260200190815260200160002060008473ffffffffffffffffffffffffffffffffffffffff1673ffffffffffffffffffffffffffffffffffffffff168152602001908152602001600020819055508173ffffffffffffffffffffffffffffffffffffffff168373ffffffffffffffffffffffffffffffffffffffff167f8c5be1e5ebec7d5bd14f71427d1e84f3dd0314c0f7b2291e5b200ac8c7c3b925836040516107a891906111cd565b60405180910390a3505050565b60006107c1848461055b565b90507fffffffffffffffffffffffffffffffffffffffffffffffffffffffffffffffff811461083b578181101561082d576040517f08c379a00000000000000000000000000000000000000000000000000000000081526004016108249061110d565b60405180910390fd5b61083a84848484036105ea565b5b50505050565b600073ffffffffffffffffffffffffffffffffffffffff168373ffffffffffffffffffffffffffffffffffffffff1614156108b1576040517f08c379a00000000000000000000000000000000000000000000000000000000081526004016108a89061114d565b60405180910390fd5b600073ffffffffffffffffffffffffffffffffffffffff168273ffffffffffffffffffffffffffffffffffffffff161415610921576040517f08c379a0000000000000000000000000000000000000000000000000000000008152600401610918906110cd565b60405180910390fd5b61092c838383610c22565b60008060008573ffffffffffffffffffffffffffffffffffffffff1673ffffffffffffffffffffffffffffffffffffffff168152602001908152602001600020549050818110156109b2576040517f08c379a00000000000000000000000000000000000000000000000000000000081526004016109a99061112d565b60405180910390fd5b8181036000808673ffffffffffffffffffffffffffffffffffffffff1673ffffffffffffffffffffffffffffffffffffffff16815260200190815260200160002081905550816000808573ffffffffffffffffffffffffffffffffffffffff1673ffffffffffffffffffffffffffffffffffffffff1681526020019081526020016000206000828254610a45919061121f565b925050819055508273ffffffffffffffffffffffffffffffffffffffff168473ffffffffffffffffffffffffffffffffffffffff167fddf252ad1be2c89b69c2b068fc378daa952ba7f163c4a11628f55a4df523b3ef84604051610aa991906111cd565b60405180910390a3610abc848484610c27565b50505050565b600073ffffffffffffffffffffffffffffffffffffffff168273ffffffffffffffffffffffffffffffffffffffff161415610b32576040517f08c379a0000000000000000000000000000000000000000000000000000000008152600401610b29906111ad565b60405180910390fd5b610b3e60008383610c22565b8060026000828254610b50919061121f565b92505081905550806000808473ffffffffffffffffffffffffffffffffffffffff1673ffffffffffffffffffffffffffffffffffffffff1681526020019081526020016000206000828254610ba5919061121f565b925050819055508173ffffffffffffffffffffffffffffffffffffffff16600073ffffffffffffffffffffffffffffffffffffffff167fddf252ad1be2c89b69c2b068fc378daa952ba7f163c4a11628f55a4df523b3ef83604051610c0a91906111cd565b60405180910390a3610c1e60008383610c27565b5050565b505050565b505050565b600081359050610c3b81611576565b92915050565b600081359050610c508161158d565b92915050565b600060208284031215610c6857600080fd5b6000610c7684828501610c2c565b91505092915050565b60008060408385031215610c9257600080fd5b6000610ca085828601610c2c565b9250506020610cb185828601610c2c565b9150509250929050565b600080600060608486031215610cd057600080fd5b6000610cde86828701610c2c565b9350506020610cef86828701610c2c565b9250506040610d0086828701610c41565b9150509250925092565b60008060408385031215610d1d57600080fd5b6000610d2b85828601610c2c565b9250506020610d3c85828601610c41565b9150509250929050565b610d4f81611452565b82525050565b6000610d6082611203565b610d6a818561120e565b9350610d7a818560208601611495565b610d8381611558565b840191505092915050565b6000610d9b60238361120e565b91507f45524332303a207472616e7366657220746f20746865207a65726f206164647260008301527f65737300000000000000000000000000000000000000000000000000000000006020830152604082019050919050565b6000610e0160228361120e565b91507f45524332303a20617070726f766520746f20746865207a65726f20616464726560008301527f73730000000000000000000000000000000000000000000000000000000000006020830152604082019050919050565b6000610e67601d8361120e565b91507f45524332303a20696e73756666696369656e7420616c6c6f77616e63650000006000830152602082019050919050565b6000610ea760268361120e565b91507f45524332303a207472616e7366657220616d6f756e742065786365656473206260008301527f616c616e636500000000000000000000000000000000000000000000000000006020830152604082019050919050565b6000610f0d60258361120e565b91507f45524332303a207472616e736665722066726f6d20746865207a65726f20616460008301527f64726573730000000000000000000000000000000000000000000000000000006020830152604082019050919050565b6000610f7360248361120e565b91507f45524332303a20617070726f76652066726f6d20746865207a65726f2061646460008301527f72657373000000000000000000000000000000000000000000000000000000006020830152604082019050919050565b6000610fd960258361120e565b91507f45524332303a2064656372656173656420616c6c6f77616e63652062656c6f7760008301527f207a65726f0000000000000000000000000000000000000000000000000000006020830152604082019050919050565b600061103f601f8361120e565b91507f45524332303a206d696e7420746f20746865207a65726f2061646472657373006000830152602082019050919050565b61107b8161147e565b82525050565b61108a81611488565b82525050565b60006020820190506110a56000830184610d46565b92915050565b600060208201905081810360008301526110c58184610d55565b905092915050565b600060208201905081810360008301526110e681610d8e565b9050919050565b6000602082019050818103600083015261110681610df4565b9050919050565b6000602082019050818103600083015261112681610e5a565b9050919050565b6000602082019050818103600083015261114681610e9a565b9050919050565b6000602082019050818103600083015261116681610f00565b9050919050565b6000602082019050818103600083015261118681610f66565b9050919050565b600060208201905081810360008301526111a681610fcc565b9050919050565b600060208201905081810360008301526111c681611032565b9050919050565b60006020820190506111e26000830184611072565b92915050565b60006020820190506111fd6000830184611081565b92915050565b600081519050919050565b600082825260208201905092915050565b600061122a8261147e565b91506112358361147e565b9250827fffffffffffffffffffffffffffffffffffffffffffffffffffffffffffffffff0382111561126a576112696114fa565b5b828201905092915050565b6000808291508390505b60018511156112bf5780860481111561129b5761129a6114fa565b5b60018516156112aa5780820291505b80810290506112b885611569565b945061127f565b94509492505050565b60006112d38261147e565b91506112de8361147e565b925061130b7fffffffffffffffffffffffffffffffffffffffffffffffffffffffffffffffff8484611313565b905092915050565b60008261132357600190506113df565b8161133157600090506113df565b8160018114611347576002811461135157611380565b60019150506113df565b60ff841115611363576113626114fa565b5b8360020a91508482111561137a576113796114fa565b5b506113df565b5060208310610133831016604e8410600b84101617156113b55782820a9050838111156113b0576113af6114fa565b5b6113df565b6113c28484846001611275565b925090508184048111156113d9576113d86114fa565b5b81810290505b9392505050565b60006113f18261147e565b91506113fc8361147e565b9250817fffffffffffffffffffffffffffffffffffffffffffffffffffffffffffffffff0483118215151615611435576114346114fa565b5b828202905092915050565b600061144b8261145e565b9050919050565b60008115159050919050565b600073ffffffffffffffffffffffffffffffffffffffff82169050919050565b6000819050919050565b600060ff82169050919050565b60005b838110156114b3578082015181840152602081019050611498565b838111156114c2576000848401525b50505050565b600060028204905060018216806114e057607f821691505b602082108114156114f4576114f3611529565b5b50919050565b7f4e487b7100000000000000000000000000000000000000000000000000000000600052601160045260246000fd5b7f4e487b7100000000000000000000000000000000000000000000000000000000600052602260045260246000fd5b6000601f19601f8301169050919050565b60008160011c9050919050565b61157f81611440565b811461158a57600080fd5b50565b6115968161147e565b81146115a157600080fd5b5056fea264697066735822122067e01d13a6ecc741977405587cc5556d8bd47cd5b89e503a09ddbdd1cdaa0c2f64736f6c63430008000033",
  "immutableReferences": {},
  "source": "//SPDX-License-Identifier: UNLICENSED\r\npragma solidity ^0.8.0;\r\n\r\nimport \"../node_modules/@openzeppelin/contracts/token/ERC20/ERC20.sol\";\r\nimport \"../node_modules/@openzeppelin/contracts/access/Ownable.sol\";\r\n\r\n/**\r\n * @title SimpleToken\r\n * @dev Very simple ERC20 Token example, where all tokens are pre-assigned to the creator.\r\n * Note they can later distribute these tokens as they wish using `transfer` and other\r\n * `ERC20` functions.\r\n */\r\ncontract USN is ERC20  {\r\n    \r\n\r\n    /**\r\n     * @dev Constructor that gives msg.sender all of existing tokens.\r\n     */\r\n    constructor ()  ERC20(\"USN\", \"USN\") {\r\n        _mint(msg.sender, 100 * (10 ** uint256(decimals())));\r\n    }\r\n    function MintMore() public {\r\n        _mint(msg.sender, 100 * (10 ** uint256(decimals())));\r\n    }\r\n}",
  "sourcePath": "C:\\tai_jutsu\\All_Web3\\AVAX_VOTING\\contracts\\USN.sol",
  "compiler": {
    "name": "solc",
    "version": "0.8.0+commit.c7dfd78e.Emscripten.clang"
  },
  "schemaVersion": "3.4.7",
  "updatedAt": "2022-07-03T09:55:41.042Z",
  "networkType": "ethereum",
  "devdoc": {
    "details": "Very simple ERC20 Token example, where all tokens are pre-assigned to the creator. Note they can later distribute these tokens as they wish using `transfer` and other `ERC20` functions.",
    "kind": "dev",
    "methods": {
      "allowance(address,address)": {
        "details": "See {IERC20-allowance}."
      },
      "approve(address,uint256)": {
        "details": "See {IERC20-approve}. NOTE: If `amount` is the maximum `uint256`, the allowance is not updated on `transferFrom`. This is semantically equivalent to an infinite approval. Requirements: - `spender` cannot be the zero address."
      },
      "balanceOf(address)": {
        "details": "See {IERC20-balanceOf}."
      },
      "constructor": {
        "details": "Constructor that gives msg.sender all of existing tokens."
      },
      "decimals()": {
        "details": "Returns the number of decimals used to get its user representation. For example, if `decimals` equals `2`, a balance of `505` tokens should be displayed to a user as `5.05` (`505 / 10 ** 2`). Tokens usually opt for a value of 18, imitating the relationship between Ether and Wei. This is the value {ERC20} uses, unless this function is overridden; NOTE: This information is only used for _display_ purposes: it in no way affects any of the arithmetic of the contract, including {IERC20-balanceOf} and {IERC20-transfer}."
      },
      "decreaseAllowance(address,uint256)": {
        "details": "Atomically decreases the allowance granted to `spender` by the caller. This is an alternative to {approve} that can be used as a mitigation for problems described in {IERC20-approve}. Emits an {Approval} event indicating the updated allowance. Requirements: - `spender` cannot be the zero address. - `spender` must have allowance for the caller of at least `subtractedValue`."
      },
      "increaseAllowance(address,uint256)": {
        "details": "Atomically increases the allowance granted to `spender` by the caller. This is an alternative to {approve} that can be used as a mitigation for problems described in {IERC20-approve}. Emits an {Approval} event indicating the updated allowance. Requirements: - `spender` cannot be the zero address."
      },
      "name()": {
        "details": "Returns the name of the token."
      },
      "symbol()": {
        "details": "Returns the symbol of the token, usually a shorter version of the name."
      },
      "totalSupply()": {
        "details": "See {IERC20-totalSupply}."
      },
      "transfer(address,uint256)": {
        "details": "See {IERC20-transfer}. Requirements: - `to` cannot be the zero address. - the caller must have a balance of at least `amount`."
      },
      "transferFrom(address,address,uint256)": {
        "details": "See {IERC20-transferFrom}. Emits an {Approval} event indicating the updated allowance. This is not required by the EIP. See the note at the beginning of {ERC20}. NOTE: Does not update the allowance if the current allowance is the maximum `uint256`. Requirements: - `from` and `to` cannot be the zero address. - `from` must have a balance of at least `amount`. - the caller must have allowance for ``from``'s tokens of at least `amount`."
      }
    },
    "title": "SimpleToken",
    "version": 1
  },
  "userdoc": {
    "kind": "user",
    "methods": {},
    "version": 1
  }
}